:100000000C942A000C9447000C9447000C94470071
:100010000C9447000C9447000C9447000C94470044
:100020000C9447000C9447000C9447000C94470034
:100030000C9447000C9447000C9447000C94470024
:100040000C9447000C9447000C9447000C94470014
:100050000C94470011241FBECFE5D8E0DEBFCDBF12
:1000600010E0A0E6B0E0ECEBF5E002C005900D92E8
:10007000A43DB107D9F720E0A4EDB0E001C01D9286
:10008000AA3DB207E1F70E947C010C94DC020C94BB
:1000900000008EEF8BBBCC9908C08FE39CE90197E1
:1000A000F1F700C0000087E30895CD9908C08FE301
:1000B0009CE90197F1F700C0000088E30895CE990C
:1000C00008C08FE39CE90197F1F700C0000089E3C5
:1000D0000895CF9908C08FE39CE90197F1F700C01C
:1000E00000008FE208958DEF8BBBCC9908C08FE3A1
:1000F0009CE90197F1F700C0000084E30895CD99D1
:1001000008C08FE39CE90197F1F700C0000085E388
:100110000895CE9908C08FE39CE90197F1F700C0DC
:10012000000086E30895CF9908C08FE39CE901970A
:10013000F1F700C000008AE208958BEF8BBBCC99E9
:1001400008C08FE39CE90197F1F700C0000081E34C
:100150000895CD9908C08FE39CE90197F1F700C09D
:10016000000082E30895CE9908C08FE39CE90197CF
:10017000F1F700C0000083E30895CF9908C08FE332
:100180009CE90197F1F700C000008DE2089587EF28
:100190008BBBCC9908C08FE39CE90197F1F700C0B5
:1001A000000083E40895CD9908C08FE39CE901978E
:1001B000F1F700C0000080E30895CE9908C08FE3F6
:1001C0009CE90197F1F700C0000085E40895CF99FC
:1001D00008C08FE39CE90197F1F700C000008BE2B3
:1001E0000895089595B39F7D95BB95B39F7B95BB6F
:1001F000982F907F98BB92B3906892BB2FEF39EF06
:1002000090E0215030409040E1F700C0000092B3F0
:100210009F7792BB8295807F88BB82B3806882BBC8
:100220002FEF39EF80E0215030408040E1F700C0EF
:10023000000082B38F7782BB089595B3906295BB1F
:1002400095B39F7B95BB982F907F98BB92B3906896
:1002500092BB2FEF39EF90E0215030409040E1F712
:1002600000C0000092B39F7792BB8295807F88BBCD
:1002700082B3806882BB2FEF39EF80E0215030409D
:100280008040E1F700C0000082B38F7782BB089501
:100290008FEF84BB81B3806881BB82B38F7782BBD1
:1002A00083E30E94F20082E30E94F20088E20E944F
:1002B000F2008EE00E94F20081E00E94F2002FEF37
:1002C00089EF90E0215080409040E1F700C00000AD
:1002D00008950F931F93CF938C01C0E003C00E9439
:1002E0001D01CF5FF801EC0FF11D80818111F7CF67
:1002F000CF911F910F9108958FE08ABB0E94480112
:1003000080E690E00E9469012FEF86E791E021509E
:1003100080409040E1F700C0000081E00E94F200C0
:100320008EE00E94F2002FEF86E791E0215080409E
:100330009040E1F700C000008EE690E00E94690165
:100340002FEF86E791E0215080409040E1F700C018
:10035000000081E00E94F2008EE00E94F2002FEF88
:1003600086E791E0215080409040E1F700C0000016
:1003700080E890E00E9469012FEF81EE94E0215027
:1003800080409040E1F700C0000081E00E94F20050
:100390008EE00E94F2002FEF81EE94E02150804029
:1003A0009040E1F700C000008DE890E00E946901F4
:1003B00080EC0E94F20080EF8BBB89B3803F09F490
:1003C00048C00E9449008093D8008F3241F08A32A1
:1003D00031F08D3221F0833411F08B32E9F481E079
:1003E0000E94F2008EE00E94F2002FEF86E791E07B
:1003F000215080409040E1F700C000008CE990E07F
:100400000E9469012FEF86E791E0215080409040E3
:10041000E1F700C00000B0CF8534D9F02091D600BC
:100420003091D700A901440F551F220F331F220F0F
:10043000331F220F331F240F351F482F50E0405326
:100440005109240F351F3093D7002093D6000E9406
:100450001D018091D800853409F0ADCF8091D60080
:100460009091D7000B978C389105E0F081E00E94C5
:10047000F2008EE00E94F2002FEF86E791E021501B
:1004800080409040E1F700C000008AEA90E00E94BE
:1004900069012FEF86E791E0215080409040E1F71D
:1004A00000C0000081E00E94F2008EE00E94F20095
:1004B0002FEF86E791E0215080409040E1F700C0A7
:1004C000000089EB90E00E9469012FEF86E791E040
:1004D000215080409040E1F700C0000080EC0E9475
:1004E000F20080EF8BBB89B3803FA9F10E944900E5
:1004F0008093D9008F3231F08A3221F08D3211F0A1
:100500008B32E9F481E00E94F2008EE00E94F2005A
:100510002FEF86E791E0215080409040E1F700C046
:1005200000008CE990E00E9469012FEF86E791E0DE
:10053000215080409040E1F700C00000B3CF8534E7
:1005400051F0282F30E0205331093093D50020930B
:10055000D4000E941D018091D900853411F68534A4
:1005600041F581E00E94F2008EE00E94F2002FEF40
:1005700086E791E0215080409040E1F700C0000004
:100580008AEC90E00E9469012FEF81EE94E0215007
:1005900080409040E1F700C0000081E00E94F2003E
:1005A0002FEF89E698E1215080409040E1F700C0AC
:0C05B000000080E090E00895F894FFCF78
:1005BC00202048454C4C4F205553455220002D2DA2
:1005CC00204943542050524F4A454354202D2D006E
:1005DC00202047524F5550202D20333900454E5482
:1005EC004552204C454E475448203A00494E5641FE
:1005FC004C494420494E50555400494E56414C49A3
:10060C0044204C454E47544800454E5445522051C9
:10061C0055414E54495459203A0020202020444F33
:04062C004E45000037
:00000001FF
