S01D00005573657220496E70757420436F6E74726F6C6C65722E73726563F4
S11300000C942A000C9447000C9447000C9447006D
S11300100C9447000C9447000C9447000C94470040
S11300200C9447000C9447000C9447000C94470030
S11300300C9447000C948E010C9447000C944700D8
S11300400C9447000C9447000C9447000C94470010
S11300500C94470011241FBECFE5D8E0DEBFCDBF0E
S113006010E0A0E6B0E0E6E6F6E002C005900D92EE
S1130070A43AB107D9F720E0A4EAB0E001C01D9288
S1130080AB3AB207E1F70E94CA010C9431030C9415
S1130090000087B38E6087BB89E683BF8FEF8CBF78
S11300A008958CBF089588B3826088BB089588B38F
S11300B08D7F88BB08958EEF8BBBCC9908C08FE3EE
S11300C09CE90197F1F700C0000087E30895CD99FA
S11300D008C08FE39CE90197F1F700C0000088E3B2
S11300E00895CE9908C08FE39CE90197F1F700C009
S11300F0000089E30895CF9908C08FE39CE9019734
S1130100F1F700C000008FE208958DEF8BBBCC990E
S113011008C08FE39CE90197F1F700C0000084E375
S11301200895CD9908C08FE39CE90197F1F700C0C9
S1130130000085E30895CE9908C08FE39CE90197F8
S1130140F1F700C0000086E30895CF9908C08FE35B
S11301509CE90197F1F700C000008AE208958BEF53
S11301608BBBCC9908C08FE39CE90197F1F700C0E1
S1130170000081E30895CD9908C08FE39CE90197BD
S1130180F1F700C0000082E30895CE9908C08FE320
S11301909CE90197F1F700C0000083E30895CF992B
S11301A008C08FE39CE90197F1F700C000008DE2DD
S11301B0089587EF8BBBCC9908C08FE39CE9019726
S11301C0F1F700C0000083E40895CD9908C08FE3DF
S11301D09CE90197F1F700C0000080E30895CE99EF
S11301E008C08FE39CE90197F1F700C0000085E4A3
S11301F00895CF9908C08FE39CE90197F1F700C0F7
S113020000008EE20895089595B39F7D95BB95B344
S11302109F7B95BB982F907F98BB92B3906892BBBD
S11302202FEF39EF90E0215030409040E1F700C0CB
S1130230000092B39F7792BB8295807F88BB82B384
S1130240806882BB2FEF39EF80E02150304080403E
S1130250E1F700C0000082B38F7782BB089595B3A5
S1130260906295BB95B39F7B95BB982F907F98BB6D
S113027092B3906892BB2FEF39EF90E02150304059
S11302809040E1F700C0000092B39F7792BB829543
S1130290807F88BB82B3806882BB2FEF39EF80E018
S11302A0215030408040E1F700C0000082B38F77D6
S11302B082BB08958FEF84BB81B3806881BB82B316
S11302C08F7782BB83E30E94040182E30E940401CE
S11302D088E20E9404018EE00E94040181E00E94F1
S11302E004012FEF89EF90E0215080409040E1F726
S11302F000C0000008950F931F93CF938C01C0E0BA
S113030003C00E942F01CF5FF801EC0FF11D808123
S11303108111F7CFCF911F910F9108951F920F92E2
S11303200FB60F9211242F933F934F935F936F93C4
S11303307F938F939F93AF93BF93EF93FF938CB16E
S11303408093A900813019F40E94530012C08430B4
S113035019F40E9457000DC0823029F48FEF90E009
S11303600E94510006C0833021F484E690E00E948C
S11303705100FF91EF91BF91AF919F918F917F9128
S11303806F915F914F913F912F910F900FBE0F90FE
S11303901F90189560E875E280E090E00E94D70213
S11303A00E9449008FE08ABB0E945A01789480E63B
S11303B090E00E947B012FEF81EE94E02150804079
S11303C09040E1F700C0000081E00E9404018EE04B
S11303D00E9404012FEF81EE94E021508040904070
S11303E0E1F700C000008EE690E00E947B0180EC03
S11303F00E94040180EF8BBB89B3803F09F448C09D
S11304000E945B008093A8008F3231F08A3221F081
S11304108D3211F08334E9F481E00E9404018EE00E
S11304200E9404012FEF81EE94E02150804090401F
S1130430E1F700C000008BE790E00E947B012FEF02
S113044081EE94E0215080409040E1F700C000002C
S1130450BBCF8534E9F02091A6003091A700A90113
S1130460440F551F220F331F220F331F220F331F38
S1130470240F351F90E0C097820F931F9093A7001D
S11304808093A6000E9405038091A8000E942F017A
S11304908091A800853409F0ADCF81E00E94040169
S11304A08EE00E9404012FEF81EE94E02150804001
S11304B09040E1F700C0000089E890E00E947B01D1
S11304C02FEF81EE94E0215080409040E1F700C08E
S11304D0000080EC0E94040180EF8BBB89B3803F55
S11304E0A9F10E945B008093AA008F3221F08A3226
S11304F011F08D32E9F481E00E9404018EE00E9443
S113050004012FEF81EE94E0215080409040E1F708
S113051000C000008BE790E00E947B012FEF81EE8A
S113052094E0215080409040E1F700C00000B5CF36
S1130530853461F090E0C0979093A5008093A40067
S11305400E9405038091AA000E942F018091AA00B5
S1130550853411F6853441F581E00E9404018EE072
S11305600E9404012FEF81EE94E0215080409040DE
S1130570E1F700C000008AE990E00E947B012FEFC0
S113058081EE94E0215080409040E1F700C00000EB
S113059081E00E9404012FEF89E698E12150804018
S11305A09040E1F700C0000080E090E0089521B39E
S11305B0226021BBDC01CB01880F991FAA1FBB1F3E
S11305C0880F991FAA1FBB1F9C01AD01220F331F67
S11305D0441F551F220F331F441F551F60E074E250
S11305E084EF90E00E940F03DA01C9010197A10989
S11305F0B109892F9A2FAB2FBB2780BD215029B970
S113060088E98AB98EE080BD08955D9BFECF8CB9E0
S11306108FE19EE40197F1F700C000000895A1E284
S11306201A2EAA1BBB1BFD010DC0AA1FBB1FEE1F68
S1130630FF1FA217B307E407F50720F0A21BB30BB3
S1130640E40BF50B661F771F881F991F1A9469F72F
S113065060957095809590959B01AC01BD01CF018B
S10906600895F894FFCF99
S1130666202048454C4C4F20555345522000454EBA
S1130676544552204C454E47544800494E56414C29
S1130686494420494E50555400454E544552205134
S113069655414E54495459203A00202020202044E4
S10706A66F6E65000A
S9030000FC
